{
  "contractName": "Constant",
  "abi": [
    {
      "inputs": [],
      "name": "ROLE_AUTHORITY",
      "outputs": [
        {
          "internalType": "bytes32",
          "name": "",
          "type": "bytes32"
        }
      ],
      "stateMutability": "view",
      "type": "function"
    }
  ],
  "bytecode": "0x60c3610024600b82828239805160001a607314601757fe5b30600052607381538281f3fe730000000000000000000000000000000000000000301460806040526004361060335760003560e01c80632b93962c146038575b600080fd5b603e6054565b6040518082815260200191505060405180910390f35b60405180807f726f6c652e617574686f72697479000000000000000000000000000000000000815250600e01905060405180910390208156fea2646970667358221220c45937c97a1834a0c9f389506766d38225a0e991fff91c2a4b73c344b09040a164736f6c63430006020033",
  "source": "pragma solidity >=0.4.22;\n\nlibrary Constant {\n    bytes32 public constant ROLE_AUTHORITY = keccak256(\"role.authority\");\n}",
  "sourcePath": "/home/shivanshs9/projects/hacknow-tragen/contracts/constant.sol",
  "compiler": {
    "name": "solc",
    "version": "0.6.2+commit.bacdbe57.Emscripten.clang"
  },
  "schemaVersion": "3.1.0",
  "updatedAt": "2020-04-26T06:46:45.132Z",
  "devdoc": {
    "methods": {}
  },
  "userdoc": {
    "methods": {}
  }
}