{
  "contractName": "SequenceMetadata",
  "abi": [
    {
      "inputs": [
        {
          "internalType": "bytes32",
          "name": "hashed",
          "type": "bytes32"
        }
      ],
      "stateMutability": "nonpayable",
      "type": "constructor"
    },
    {
      "inputs": [],
      "name": "hash",
      "outputs": [
        {
          "internalType": "bytes32",
          "name": "",
          "type": "bytes32"
        }
      ],
      "stateMutability": "view",
      "type": "function"
    }
  ],
  "bytecode": "0x608060405234801561001057600080fd5b506040516100df3803806100df8339818101604052602081101561003357600080fd5b8101908080519060200190929190505050806000819055505060858061005a6000396000f3fe6080604052348015600f57600080fd5b506004361060285760003560e01c806309bd5a6014602d575b600080fd5b60336049565b6040518082815260200191505060405180910390f35b6000548156fea2646970667358221220bae0aeedf0e7e738f625021f681010b42d436c1405438e1dbbb4ebc29a0826da64736f6c63430006020033",
  "source": "pragma solidity >=0.4.22;\n\ncontract SequenceMetadata {\n    bytes32 public hash; // sha256 hash of metadata\n    \n    constructor(bytes32 hashed) public {\n        hash = hashed;\n    }\n}",
  "sourcePath": "/home/shivanshs9/projects/hacknow-tragen/contracts/sequence.sol",
  "compiler": {
    "name": "solc",
    "version": "0.6.2+commit.bacdbe57.Emscripten.clang"
  },
  "schemaVersion": "3.1.0",
  "updatedAt": "2020-04-26T06:46:45.133Z",
  "devdoc": {
    "methods": {}
  },
  "userdoc": {
    "methods": {}
  }
}