{
  "contractName": "SubmittedSequence",
  "abi": [
    {
      "inputs": [
        {
          "internalType": "contract SequenceMetadata",
          "name": "metadata",
          "type": "address"
        },
        {
          "internalType": "contract RoleControl",
          "name": "role",
          "type": "address"
        }
      ],
      "stateMutability": "nonpayable",
      "type": "constructor"
    },
    {
      "anonymous": false,
      "inputs": [
        {
          "indexed": false,
          "internalType": "contract VerifiedSequence",
          "name": "sequence",
          "type": "address"
        }
      ],
      "name": "SequenceVerified",
      "type": "event"
    },
    {
      "inputs": [],
      "name": "data",
      "outputs": [
        {
          "internalType": "contract SequenceMetadata",
          "name": "",
          "type": "address"
        }
      ],
      "stateMutability": "view",
      "type": "function"
    },
    {
      "inputs": [],
      "name": "owner",
      "outputs": [
        {
          "internalType": "address",
          "name": "",
          "type": "address"
        }
      ],
      "stateMutability": "view",
      "type": "function"
    },
    {
      "inputs": [],
      "name": "approve",
      "outputs": [],
      "stateMutability": "nonpayable",
      "type": "function"
    },
    {
      "inputs": [],
      "name": "reject",
      "outputs": [],
      "stateMutability": "nonpayable",
      "type": "function"
    }
  ],
  "bytecode": "0x6080604052604051806040016040528060008152602001600081525060036000820151816000015560208201518160010155505034801561003f57600080fd5b5060405161089e38038061089e8339818101604052604081101561006257600080fd5b81019080805190602001909291908051906020019092919050505033600260006101000a81548173ffffffffffffffffffffffffffffffffffffffff021916908373ffffffffffffffffffffffffffffffffffffffff160217905550816000806101000a81548173ffffffffffffffffffffffffffffffffffffffff021916908373ffffffffffffffffffffffffffffffffffffffff16021790555080600160006101000a81548173ffffffffffffffffffffffffffffffffffffffff021916908373ffffffffffffffffffffffffffffffffffffffff160217905550505061074e806101506000396000f3fe608060405234801561001057600080fd5b506004361061004c5760003560e01c806312424e3f146100515780634dc415de1461005b57806373d4a13a146100655780638da5cb5b146100af575b600080fd5b6100596100f9565b005b610063610266565b005b61006d6103cb565b604051808273ffffffffffffffffffffffffffffffffffffffff1673ffffffffffffffffffffffffffffffffffffffff16815260200191505060405180910390f35b6100b76103f0565b604051808273ffffffffffffffffffffffffffffffffffffffff1673ffffffffffffffffffffffffffffffffffffffff16815260200191505060405180910390f35b600160009054906101000a900473ffffffffffffffffffffffffffffffffffffffff1673ffffffffffffffffffffffffffffffffffffffff16632330f247336040518263ffffffff1660e01b8152600401808273ffffffffffffffffffffffffffffffffffffffff1673ffffffffffffffffffffffffffffffffffffffff168152602001915050602060405180830381600087803b15801561019a57600080fd5b505af11580156101ae573d6000803e3d6000fd5b505050506040513d60208110156101c457600080fd5b8101908080519060200190929190505050610247576040517f08c379a00000000000000000000000000000000000000000000000000000000081526004018080602001828103825260178152602001807f55736572206973206e6f7420617574686f72697365642100000000000000000081525060200191505060405180910390fd5b600360000160008154809291906001019190505550610264610416565b565b600160009054906101000a900473ffffffffffffffffffffffffffffffffffffffff1673ffffffffffffffffffffffffffffffffffffffff16632330f247336040518263ffffffff1660e01b8152600401808273ffffffffffffffffffffffffffffffffffffffff1673ffffffffffffffffffffffffffffffffffffffff168152602001915050602060405180830381600087803b15801561030757600080fd5b505af115801561031b573d6000803e3d6000fd5b505050506040513d602081101561033157600080fd5b81019080805190602001909291905050506103b4576040517f08c379a00000000000000000000000000000000000000000000000000000000081526004018080602001828103825260178152602001807f55736572206973206e6f7420617574686f72697365642100000000000000000081525060200191505060405180910390fd5b600360010160008154809291906001019190505550565b6000809054906101000a900473ffffffffffffffffffffffffffffffffffffffff1681565b600260009054906101000a900473ffffffffffffffffffffffffffffffffffffffff1681565b60006003600101546003600001540390506002600160009054906101000a900473ffffffffffffffffffffffffffffffffffffffff1673ffffffffffffffffffffffffffffffffffffffff16633b28c40e6040518163ffffffff1660e01b8152600401602060405180830381600087803b15801561049357600080fd5b505af11580156104a7573d6000803e3d6000fd5b505050506040513d60208110156104bd57600080fd5b8101908080519060200190929190505050816104d557fe5b0481106105a5576000306040516104eb906105a8565b808273ffffffffffffffffffffffffffffffffffffffff1673ffffffffffffffffffffffffffffffffffffffff168152602001915050604051809103906000f08015801561053d573d6000803e3d6000fd5b5090507f5e2986d2e055b42bca220a711d2a9c62eacfc30b234d9a11029b6decde7ebfb381604051808273ffffffffffffffffffffffffffffffffffffffff1673ffffffffffffffffffffffffffffffffffffffff16815260200191505060405180910390a1505b50565b610163806105b68339019056fe608060405234801561001057600080fd5b506040516101633803806101638339818101604052602081101561003357600080fd5b8101908080519060200190929190505050806000806101000a81548173ffffffffffffffffffffffffffffffffffffffff021916908373ffffffffffffffffffffffffffffffffffffffff1602179055505060d0806100936000396000f3fe6080604052348015600f57600080fd5b506004361060285760003560e01c8063529d15cc14602d575b600080fd5b60336075565b604051808273ffffffffffffffffffffffffffffffffffffffff1673ffffffffffffffffffffffffffffffffffffffff16815260200191505060405180910390f35b6000809054906101000a900473ffffffffffffffffffffffffffffffffffffffff168156fea264697066735822122008d072e328fd75ee9c7ad6099ba806bae9ac4c44534e89af6779462f37d9ed2d64736f6c63430006020033a2646970667358221220963621f3fe9d16b9cf5ff0ea8c61f0e8b889ed65b2500c6952755ecf7935996c64736f6c63430006020033",
  "source": "pragma solidity >=0.4.22;\n\nimport './sequence.sol';\nimport './access.sol';\nimport './verified-submission.sol';\n\ncontract SubmittedSequence {\n    SequenceMetadata public data;\n    RoleControl private accessControl;\n\n    address public owner;\n    struct Votes {\n        uint approves;\n        uint rejects;\n    }\n    Votes votes = Votes(0, 0);\n\n    event SequenceVerified(VerifiedSequence sequence);\n\n    constructor(SequenceMetadata metadata, RoleControl role) public {\n        owner = msg.sender;\n        data = metadata;\n        accessControl = role;\n    }\n\n    modifier onlyAuthority {\n        require(accessControl.isAuthority(msg.sender), \"User is not authorised!\");\n        _;\n    }\n\n    function checkVerified() internal {\n        uint total = votes.approves - votes.rejects;\n        if (total >= accessControl.countAuthorities() / 2) {\n            // if verified by majority (hacky PoA)\n            VerifiedSequence verified = new VerifiedSequence(this);\n            emit SequenceVerified(verified);\n        }\n    }\n\n    function approve()\n    public\n    onlyAuthority()\n    {\n        votes.approves++;\n        checkVerified();\n    }\n\n    function reject()\n    public\n    onlyAuthority()\n    {\n        votes.rejects++;\n    }\n}",
  "sourcePath": "/home/shivanshs9/projects/hacknow-tragen/contracts/submission.sol",
  "compiler": {
    "name": "solc",
    "version": "0.6.2+commit.bacdbe57.Emscripten.clang"
  },
  "schemaVersion": "3.1.0",
  "updatedAt": "2020-04-26T06:48:07.072Z",
  "devdoc": {
    "methods": {}
  },
  "userdoc": {
    "methods": {}
  }
}