{
  "contractName": "VerifiedSequence",
  "abi": [
    {
      "inputs": [
        {
          "internalType": "contract SubmittedSequence",
          "name": "submitted",
          "type": "address"
        }
      ],
      "stateMutability": "nonpayable",
      "type": "constructor"
    },
    {
      "inputs": [],
      "name": "sequence",
      "outputs": [
        {
          "internalType": "contract SubmittedSequence",
          "name": "",
          "type": "address"
        }
      ],
      "stateMutability": "view",
      "type": "function"
    }
  ],
  "bytecode": "0x608060405234801561001057600080fd5b506040516101633803806101638339818101604052602081101561003357600080fd5b8101908080519060200190929190505050806000806101000a81548173ffffffffffffffffffffffffffffffffffffffff021916908373ffffffffffffffffffffffffffffffffffffffff1602179055505060d0806100936000396000f3fe6080604052348015600f57600080fd5b506004361060285760003560e01c8063529d15cc14602d575b600080fd5b60336075565b604051808273ffffffffffffffffffffffffffffffffffffffff1673ffffffffffffffffffffffffffffffffffffffff16815260200191505060405180910390f35b6000809054906101000a900473ffffffffffffffffffffffffffffffffffffffff168156fea264697066735822122008d072e328fd75ee9c7ad6099ba806bae9ac4c44534e89af6779462f37d9ed2d64736f6c63430006020033",
  "source": "pragma solidity >=0.4.22;\n\nimport './sequence.sol';\nimport './access.sol';\nimport './submission.sol';\n\ncontract VerifiedSequence {\n    SubmittedSequence public sequence;\n\n    constructor(SubmittedSequence submitted) public {\n        sequence = submitted;\n    }\n}",
  "sourcePath": "/home/shivanshs9/projects/hacknow-tragen/contracts/verified-submission.sol",
  "compiler": {
    "name": "solc",
    "version": "0.6.2+commit.bacdbe57.Emscripten.clang"
  },
  "schemaVersion": "3.1.0",
  "updatedAt": "2020-04-26T06:48:07.074Z",
  "devdoc": {
    "methods": {}
  },
  "userdoc": {
    "methods": {}
  }
}